S014000054656D7048756D69646974792E737265632D
S113000071C000008EC000008CC000008AC00000D7
S113001088C0000086C0000084C0000082C00000C8
S113002080C00000EAC000007CC000007AC000006C
S113003078C0000076C0000074C0000072C00000E8
S113004070C000006FC000006CC000006AC00000F7
S113005068C0000066C0000064C0000062C0000008
S113006060C000005EC000005CC000005AC0000018
S113007058C0000056C0000054C0000052C0000028
S113008050C000004EC000004CC000004AC0000038
S113009048C0000046C0000044C0000042C0000048
S11300A040C000003EC000003CC000003AC0000058
S11300B038C0000036C0000034C0000032C0000068
S11300C030C000002EC000002CC000002AC0000078
S11300D028C0000026C0000024C0000022C0000088
S11300E020C0000011241FBECFEFD1E2DEBFCDBF80
S11300F000E00CBF12E0A0E0B2E0ECEFF4E000E0BE
S11301000BBF02C007900D92AA33B107D9F722E0C2
S1130110AAE3B2E001C01D92AB34B207E1F70BD100
S1130120EBC16ECF1F920F920FB60F9211248F93D3
S11301309F938091420290914302019690934302CF
S1130140809342029F918F910F900FBE0F901F904A
S1130150189510928000E1E8F0E0108280818860B8
S11301608083EFE6F0E080818260808380E1809389
S1130170B30088E090E09093890080938800109207
S1130180430210924202089585B115B88FE19EE4AE
S11301900197F1F700C00000299A14B8DADF7894C7
S11301A09FEF2BE782E9915020408040E1F700C0A7
S11301B00000F894089510924A0280E09BE4A0E0C5
S11301C0B0E08093440290934502A0934602B0931A
S11301D0470286E090E0909349028093480226E02B
S11301E030E040E05BE460E070E080E05EC10895F0
S11301F0BC0180914A02BEC008951F920F920FB6AF
S11302000F9211240BB60F922F933F934F935F934A
S11302106F937F938F939F93AF93BF93EF93FF93CA
S113022088E092E0E5DF80914002909141029C01D8
S113023021703078332334F4215031092E6F3F6F0D
S11302402F5F3F4F2130310509F051C082309105B5
S11302500CF44DC082329105BCF420913E023091E1
S11302603F02220F331F30933F0220933E024091FE
S11302704202509143024E325105CCF12160309339
S11302803F0220933E0233C082349105BCF4209196
S11302903C0230913D02220F331F30933D022093E4
S11302A03C0240914202509143024E325105FCF00F
S11302B0216030933D0220933C0219C082359105A0
S11302C0B4F420913A0230913B02220F331F309351
S11302D03B0220933A0240914202509143024E3233
S11302E051052CF0216030933B0220933A02019691
S11302F09093410280934002FF91EF91BF91AF919F
S11303009F918F917F916F915F914F913F912F9129
S11303100F900BBE0F900FBE0F901F90189587E2A1
S113032092E066CF089580913E0290913F02825DF3
S11303309D4F5ECF089581E080936800EBE6F0E086
S113034080818260808337DFC2E0F894C4B9299A3F
S11303501BDFE9DFE4DFF9CFE82FF0E0EE0FFF1F4A
S1130360E050FE4F0190F081E02D808185FFFDCFAC
S113037066830895FF920F931F93CF93DF93F82E14
S1130380FB0101900020E9F73197E61BF70B1E16DD
S11303901F0654F4EB018B010E0F1F1F69918F2D63
S11303A0DBDFC017D107D1F76AE08F2DD5DFDF91EE
S11303B0CF911F910F91FF900895603820E7720745
S11303C08105910509F456C00CF5603825E27207E1
S11303D08105910509F445C06CF4603629E0720783
S11303E08105910509F45EC0603C72418105910567
S11303F0A9F155C0603428E3720781059105A1F184
S113040061157B448105910591F149C061152CE288
S1130410720721E082079105B1F164F4611526E9C0
S113042072078105910549F16115714E81059105A8
S113043039F135C0611524E8720723E0820791057C
S113044041F1603920ED720723E08207910521F123
S11304506115724C8140910511F518C08FEC90E044
S1130460089587E690E0089584E490E0089583E396
S113047090E0089582E290E0089589E190E0089583
S113048080E190E008958CE090E0089588E090E0A9
S1130490089583E090E0089583E090E008958FEF5D
S11304A09FEF089580EA91E00895EF92FF921F93E1
S11304B0CF93DF93122FC82FD0E0CC0FDD1FC05095
S11304C0DE4FE880F980CB01BA0177DFF70195832D
S11304D08483E881F9811283E881F98181818061D3
S11304E08183E881F981818188608183DF91CF9163
S10F04F01F91FF90EF900895F894FFCF47
S11304FCC000C800D0003001476F7420696E746F5F
S113050C2050696E204368616E676520496E74657E
S113051C72727570742E0052657365742E00487572
S10D052C6D69646974793A200000D7
S9030000FC
