S014000054656D7048756D69646974792E737265632D
S113000071C000008EC000008CC000008AC00000D7
S113001088C0000086C0000084C0000082C00000C8
S113002080C00000FCC000007CC000007AC000005A
S113003078C0000076C0000074C0000072C00000E8
S113004070C0000089C000006CC000006AC00000DD
S113005068C0000066C0000064C0000062C0000008
S113006060C000005EC000005CC000005AC0000018
S113007058C0000056C0000054C0000052C0000028
S113008050C000004EC000004CC000004AC0000038
S113009048C0000046C0000044C0000042C0000048
S11300A040C000003EC000003CC000003AC0000058
S11300B038C0000036C0000034C0000032C0000068
S11300C030C000002EC000002CC000002AC0000078
S11300D028C0000026C0000024C0000022C0000088
S11300E020C0000011241FBECFEFD1E2DEBFCDBF80
S11300F000E00CBF12E0A0E0B2E0E6E7FBE000E0C5
S11301000BBF02C007900D92A631B107D9F722E0C8
S1130110A6E1B2E001C01D92A732B207E1F76CD1AB
S113012028C56ECF85B115B88FE19EE40197F1F72C
S113013000C00000299A14B810921F0210921E02E7
S113014078949FEF2BE782E9915020408040E1F7BB
S113015000C00000F89408951F920F920FB60F92FA
S113016011248F939F9380911E0290911F020196F8
S113017090931F0280931E029F918F910F900FBE48
S11301800F901F90189510921D0210921C0210924D
S11301901B0210921A021092190210921802109265
S11301A0170210921602089510928000E1E8F0E020
S11301B0108280818860808380818160808380E177
S11301C087BD88E090E09093890080938800EFE6F3
S11301D0F0E080818260808308951092260280E09E
S11301E09BE4A0E0B0E08093200290932102A093CE
S11301F02202B093230286E090E09093250280933C
S1130200240226E030E040E05BE460E070E080E05F
S1130210AEC10895BC01809126020EC108951F92BB
S11302200F920FB60F9211240BB60F922F933F9398
S11302304F935F936F937F938F939F93AF93BF93EA
S1130240EF93FF9380911C0290911D0280FF6CC07C
S113025080911C0290911D0202970CF465C088E005
S113026092E0D8DF80911C0290911D028297DCF409
S113027080911A0290911B02880F991F90931B0280
S113028080931A0280911E0290911F028E970CF4A3
S11302904BC080911A0290911B02816090931B02C3
S11302A080931A0241C080911C0290911D028234F5
S11302B09105D4F48091180290911902880F991F26
S11302C0909319028093180280911E0290911F024C
S11302D08E9754F180911802909119028160909345
S11302E019028093180220C080911C0290911D0273
S11302F082359105CCF48091160290911702880FF3
S1130300991F909317028093160280911E02909178
S11303101F028E974CF08091160290911702816013
S1130320909317028093160280911C0290911D02F3
S1130330019690931D0280931C0280911C0290915F
S11303401D02FF91EF91BF91AF919F918F917F918A
S11303506F915F914F913F912F910F900BBE0F9032
S11303600FBE0F901F901895EF92FF920F931F935B
S1130370CF93DF9300D0CDB7DEB780911A0290916E
S11303801B029F938F930F2EF2E1EF2EF2E0FF2ECC
S1130390F02DFF92EF928E010F5F1F4F1F930F936B
S11303A00DD1C80137DF80911802909119029F93F3
S11303B08F93FF92EF921F930F9300D1C8012ADF0E
S11303C080911602909117029F938F93FF92EF9260
S11303D01F930F93F3D0C8011DDF0FB6F894DEBF4F
S11303E00FBECDBF0F900F900F90DF91CF911F9153
S11303F00F91FF90EF90089581E080936800EBE601
S1130400F0E0808182608083E8DECEDEC2E0F89492
S1130410C4B9299A87DEA8DFB6DEF9CFE82FF0E069
S1130420EE0FFF1FE050FE4F0190F081E02D808120
S113043085FFFDCF66830895FF920F931F93CF939B
S1130440DF93F82EFB0101900020E9F73197E61BBA
S1130450F70B1E161F0654F4EB018B010E0F1F1F22
S113046069918F2DDBDFC017D107D1F76AE08F2D9B
S1130470D5DFDF91CF911F910F91FF9008956038E0
S113048020E772078105910509F456C00CF5603820
S113049025E272078105910509F445C06CF46036C4
S11304A029E072078105910509F45EC0603C724140
S11304B081059105A9F155C0603428E372078105CF
S11304C09105A1F161157B448105910591F149C024
S11304D061152CE2720721E082079105B1F164F401
S11304E0611526E972078105910549F16115714E7F
S11304F08105910539F135C0611524E8720723E0BF
S11305008207910541F1603920ED720723E08207EB
S1130510910521F16115724C8140910511F518C0C6
S11305208FEC90E0089587E690E0089584E490E0ED
S1130530089583E390E0089582E290E0089589E1CC
S113054090E0089580E190E008958CE090E00895B3
S113055088E090E0089583E090E0089583E090E0DF
S113056008958FEF9FEF089580EA91E00895EF9248
S1130570FF921F93CF93DF93122FC82FD0E0CC0F9D
S1130580DD1FC050DE4FE880F980CB01BA0177DF70
S1130590F70195838483E881F9811283E881F981E5
S11305A0818180618183E881F9818181886081838F
S11305B0DF91CF911F91FF90EF9008950F931F93B8
S11305C0CF93DF93CDB7DEB72E970FB6F894DEBF87
S11305D00FBECDBF0E891F8986E08C831A830983E1
S11305E08FEF9FE79E838D83AE01465E5F4F688DDC
S11305F0798DCE01019610D0EF81F885E00FF11FBF
S113060010822E960FB6F894DEBF0FBECDBFDF91D9
S1130610CF911F910F9108952F923F924F925F9225
S11306206F927F928F929F92AF92BF92CF92DF92FE
S1130630EF92FF920F931F93CF93DF93CDB7DEB763
S11306402B970FB6F894DEBF0FBECDBF6C017B01B4
S11306508A01FC0117821682838181FFBFC1CE010A
S113066001963C01F6019381F70193FD859193FF77
S113067081917F01882309F4ADC1853239F493FD5A
S1130680859193FF81917F01853221F4B60190E039
S1130690D6D1E8CF912C212C312CFFE1F315D8F0E1
S11306A08B3279F038F4803279F08332A1F4232D3F
S11306B020611DC08D3261F0803369F4232D2160E7
S11306C016C0832D8260382EE32DE4603E2E2AC0AE
S11306D0F32DF8601DC037FC2DC020ED280F2A3003
S11306E040F08E32B9F436FC75C1232D2064322ECD
S11306F019C036FE06C08AE0989E200D1124922E61
S113070011C0EAE02E9E200D1124222EF32DF0625A
S11307103F2E08C08C3621F4832D8068382E02C009
S1130720883641F4F70193FD859193FF81917F0110
S11307308111B3CF982F9F7D9554933028F40C5F8B
S11307401F4F9FE399830DC0833631F0833771F0D7
S1130750833509F055C020C0F801808189830E5F7C
S11307601F4F88248394912C530112C02801F2E076
S11307704F0E511CF801A080B18036FE03C0692DD4
S113078070E002C06FEF7FEFC5014ED14C018201D2
S1130790F32DFF773F2E15C0280122E0420E511C95
S11307A0F801A080B18036FE03C0692D70E002C05C
S11307B06FEF7FEFC5012DD14C01F32DF0683F2E73
S11307C0820133FC19C0822D90E088169906A0F4AA
S11307D0B60180E290E033D12A94F5CFF50137FCDD
S11307E0859137FE81915F01B60190E028D12110F7
S11307F02A9421E0821A91088114910479F7E1C0C6
S1130800843611F0893639F5F80137FE07C0608166
S11308107181828193810C5F1F4F08C06081718157
S1130820072E000C880B990B0E5F1F4FF32DFF76DC
S11308303F2E97FF09C090958095709561957F4FE5
S11308408F4F9F4FF0683F2E2AE030E0A30133D151
S1130850882E861844C0853731F4232D2F7EB22E7E
S11308602AE030E025C0932D997FB92E8F36C1F050
S113087018F4883579F0AEC0803719F0883721F044
S1130880A9C0E92FE061BE2EB4FE0DC0FB2DF460BB
S1130890BF2E09C034FE0AC0292F2660B22E06C01E
S11308A028E030E005C020E130E002C020E132E081
S11308B0F801B7FE07C060817181828193810C5F6A
S11308C01F4F06C06081718180E090E00E5F1F4F72
S11308D0A301F1D0882E8618FB2DFF773F2E36FE1C
S11308E00DC0232D2E7FA22E891458F434FE0BC084
S11308F032FC09C0832D8E7EA82E05C0B82CA32CF3
S113090003C0B82C01C0B92CA4FE0FC0FE01E80D31
S1130910F11D8081803321F49A2D997EA92E09C07E
S1130920A2FE06C0B394B39404C08A2D867809F05D
S1130930B394A3FC10C0A0FE06C0B21480F4280C2B
S1130940922C9B180DC0B21458F4B60180E290E0CA
S113095076D0B394F8CFB21418F42B1802C0982CA4
S1130960212CA4FE0FC0B60180E390E068D0A2FE63
S113097016C0A1FC03C088E790E002C088E590E0BF
S1130980B6010CC08A2D867851F0A1FE02C08BE21C
S113099001C080E2A7FC8DE2B60190E050D089143A
S11309A030F4B60180E390E04AD09A94F8CF8A9468
S11309B0F301E80DF11D8081B60190E040D0811073
S11309C0F6CF222009F44ECEB60180E290E037D073
S11309D02A94F7CFF6018681978102C08FEF9FEFAB
S11309E02B960FB6F894DEBF0FBECDBFDF91CF912B
S11309F01F910F91FF90EF90DF90CF90BF90AF9039
S1130A009F908F907F906F905F904F903F902F902A
S1130A100895FC010590615070400110D8F780954D
S1130A2090958E0F9F1F0895FC01615070400190B6
S1130A300110D8F7809590958E0F9F1F08950F93FE
S1130A401F93CF93DF93FB01238121FD03C08FEF1D
S1130A509FEF2CC022FF16C0468157812481358127
S1130A604217530744F4A081B1819D012F5F3F4F8A
S1130A70318320838C93268137812F5F3F4F3783C7
S1130A80268314C08B01EC01FB010084F185E02D69
S1130A901995892BE1F6D80116968D919C9117979B
S1130AA0019617969C938E931697CE01DF91CF9162
S1130AB01F910F910895FA01AA27283051F120318E
S1130AC081F1E8946F936E7F6E5F7F4F8F4F9F4FDE
S1130AD0AF4FB1E03ED0B4E03CD0670F781F891F20
S1130AE09A1FA11D680F791F8A1F911DA11D6A0FEE
S1130AF0711D811D911DA11D20D009F468943F91A1
S1130B002AE0269F11243019305D3193DEF6CF019F
S1130B100895462F4770405D4193B3E00FD0C9F765
S1130B20F6CF462F4F70405D4A3318F0495D31FDD2
S1130B304052419302D0A9F7EACFB4E0A695979525
S1130B40879577956795BA95C9F7009761057105FB
S1130B5008959B01AC010A2E069457954795379545
S1130B602795BA95C9F7620F731F841F951FA01D9F
S1090B700895F894FFCF84
S1130B76C000C800D00030016765747320686572D0
S1090B8665002564000077
S9030000FC
